:100000000C9434000C9451000C9451000C94510049
:100010000C9451000C9451000C9451000C9451001C
:100020000C9451000C9451000C9451000C947000ED
:100030000C9451000C9451000C9451000C945100FC
:100040000C9451000C9451000C94AA010C9468017A
:100050000C9451000C9451000C9451000C945100DC
:100060000C9451000C94510011241FBECFEFD8E026
:10007000DEBFCDBF11E0A0E0B1E0EAEDF9E002C0E3
:1000800005900D92A434B107D9F721E0A4E4B1E0C2
:1000900001C01D92A13EB207E1F70E94B5000C9489
:1000A000EB040C94000080E480937C0087E880934C
:1000B0007A00089580E284B91092450110924401BB
:1000C00084E294EF909389008093880010928000DE
:1000D0008CE08093810082E080936F0086BB08955E
:1000E0001F920F920FB60F9211248F939F938091BE
:1000F000440190914501009719F0019751F00EC00D
:1001000080E285B981E090E09093450180934401BD
:1001100005C015B810924501109244019F918F912E
:100120000F900FBE0F901F901895EAE7F0E08081C6
:100130008064808380917A0086FDFCCF8091780076
:10014000909179000895BC0124E0622781E090E05D
:100150000E94F90180E092E19C01629FC001639FCF
:10016000900D729F900D112408950E945A000E94D4
:100170004C010E94530078940E949500D82FC92FFB
:100180009F938F938EE091E09F938F930E940D0237
:100190008D2F9C2F0E94A3009F938F9384E291E068
:1001A0009F938F930E940D022FEF89E698E12150D3
:1001B00080409040E1F700C000008DB79EB70896E0
:1001C0000FB6F8949EBF0FBE8DBFD6CFCF93C82F6A
:1001D0008A3019F48DE00E94E6009FB7907802C043
:1001E000992329F1809147018823D4F3F894E09171
:1001F000460181E08E0F80934601F0E0E85BFE4F00
:10020000C083809147018F5F8093470180914601B1
:10021000803811F410924601E1ECF0E080818062B8
:100220008083992339F0789480E090E005C081E0E4
:1002300090E002C080E090E0CF9108958091DA01D3
:100240008823E1F32FB72078F8948091C80130918A
:10025000DA0190E0831B91095AF4E091C801809182
:10026000DA01F0E0E81BF109E752FE4F80810AC095
:10027000E091C8018091DA01F0E0E81BF109E75351
:10028000FE4F80819091DA0191509093DA01222300
:1002900009F0789490E0089583E390E09093C5008E
:1002A0008093C40010924601109247011092C80139
:1002B0001092DA011092D90188E98093C100EBED28
:1002C000F1E080E091E093838283918380830895BD
:1002D0001F920F920FB60F9211242F938F939F931B
:1002E000EF93FF9380914701882329F18091460184
:1002F0002091470190E0821B91095AF4E091460158
:1003000080914701F0E0E81BF109E853FE4F90812E
:100310000AC0E091460180914701F0E0E81BF10935
:10032000E85BFE4F908180914701815080934701A7
:100330009093C60005C0E1ECF0E080818F7D808362
:10034000FF91EF919F918F912F910F900FBE0F9082
:100350001F9018951F920F920FB60F9211242F9392
:100360003F934F935F936F937F938F939F93AF933D
:10037000BF93CF93EF93FF93C091C6008091470145
:1003800088232CF060E070E08C2F0E94E6008091C2
:10039000DA01803120F081E08093D90118C0CD309E
:1003A00009F4CAE0E091C80181E08E0F8093C80192
:1003B000F0E0E753FE4FC0838091DA018F5F8093B6
:1003C000DA018091C801803111F41092C801FF91C7
:1003D000EF91CF91BF91AF919F918F917F916F914D
:1003E0005F914F913F912F910F900FBE0F901F90F3
:1003F0001895AA1BBB1B51E107C0AA1FBB1FA6175C
:10040000B70710F0A61BB70B881F991F5A95A9F7BD
:1004100080959095BC01CD010895A0E0B0E0E3E1A6
:10042000F2E00C94C404AE014B5F5F4FFA0161919E
:100430007191AF018091DD019091DE010E94230254
:10044000E2E00C94E004ABE0B0E0E9E2F2E00C940E
:10045000B4046C017B018A01FC011782168283813E
:1004600081FFCCC1CE0101963C01F6019381F701D9
:1004700093FD859193FF81917F01882309F4BAC18F
:10048000853239F493FD859193FF81917F01853207
:1004900029F4B60190E00E941A04E7CF912C212C98
:1004A000312CFFE1F315D8F08B3279F038F480323B
:1004B00079F08332A1F4232D20611DC08D3261F0CB
:1004C000803369F4232D216016C0832D8260382E7D
:1004D000E32DE4603E2E2AC0F32DF8601DC037FCEA
:1004E0002DC020ED280F2A3040F08E32B9F436FCB2
:1004F00081C1232D2064322E19C036FE06C08AE049
:10050000989E200D1124922E11C0EAE02E9E200DFF
:100510001124222EF32DF0623F2E08C08C3621F4D8
:10052000832D8068382E02C0883641F4F70193FD90
:10053000859193FF81917F018111B3CF982F9F7D8A
:100540009554933028F40C5F1F4F9FE399830DC09F
:10055000833631F0833771F0833509F059C021C0FB
:10056000F801808189830E5F1F4F88248394912C2A
:10057000530113C02801F2E04F0E511CF801A08076
:10058000B18036FE03C0692D70E002C06FEF7FEFCF
:10059000C5010E940F044C018201F32DFF773F2E0D
:1005A00016C0280122E0420E511CF801A080B18043
:1005B00036FE03C0692D70E002C06FEF7FEFC5010A
:1005C0000E9404044C01F32DF0683F2E820133FC9D
:1005D0001BC0822D90E088169906B0F4B60180E227
:1005E00090E00E941A042A94F4CFF50137FC85911B
:1005F00037FE81915F01B60190E00E941A0421103C
:100600002A9421E0821A91088114910471F7E8C0BC
:10061000843611F0893641F5F80137FE07C0608154
:100620007181828193810C5F1F4F08C0608171814D
:10063000072E000C880B990B0E5F1F4FF32DFF76D2
:100640003F2E97FF09C090958095709561957F4FDB
:100650008F4F9F4FF0683F2E2AE030E0A3010E94A9
:100660005604882E861845C0853731F4232D2F7EF9
:10067000B22E2AE030E025C0932D997FB92E8F3617
:10068000C1F018F4883579F0B5C0803719F0883793
:1006900021F0B0C0E92FE061BE2EB4FE0DC0FB2DED
:1006A000F460BF2E09C034FE0AC0292F2660B22E86
:1006B00006C028E030E005C020E130E002C020E1C3
:1006C00032E0F801B7FE07C06081718182819381B9
:1006D0000C5F1F4F06C06081718180E090E00E5F6B
:1006E0001F4FA3010E945604882E8618FB2DFF770A
:1006F0003F2E36FE0DC0232D2E7FA22E891458F4D6
:1007000034FE0BC032FC09C0832D8E7EA82E05C09E
:10071000B82CA32C03C0B82C01C0B92CA4FE0FC068
:10072000FE01E80DF11D8081803321F49A2D997E20
:10073000A92E09C0A2FE06C0B394B39404C08A2DAA
:10074000867809F0B394A3FC11C0A0FE06C0B214D1
:1007500088F4280C922C9B180EC0B21460F4B601D9
:1007600080E290E00E941A04B394F7CFB21418F418
:100770002B1802C0982C212CA4FE10C0B60180E3D7
:1007800090E00E941A04A2FE17C0A1FC03C088E7F3
:1007900090E002C088E590E0B6010CC08A2D867812
:1007A00059F0A1FE02C08BE201C080E2A7FC8DE2FD
:1007B000B60190E00E941A04891438F4B60180E36F
:1007C00090E00E941A049A94F7CF8A94F301E80DFE
:1007D000F11D8081B60190E00E941A048110F5CFCE
:1007E000222009F442CEB60180E290E00E941A0471
:1007F0002A94F6CFF6018681978102C08FEF9FEF92
:100800002B96E2E10C94D004FC01059061507040FD
:100810000110D8F7809590958E0F9F1F0895FC01C9
:100820006150704001900110D8F7809590958E0F1F
:100830009F1F08950F931F93CF93DF93FB01238195
:1008400021FD03C08FEF9FEF2CC022FF16C0468111
:100850005781248135814217530744F4A081B18127
:100860009D012F5F3F4F318320838C9326813781F9
:100870002F5F3F4F3783268314C08B01EC01FB01B0
:100880000084F185E02D0995892BE1F6D8011696B3
:100890008D919C911797019617969C938E9316971E
:1008A000CE01DF91CF911F910F910895FA01AA27F0
:1008B000283051F1203181F1E8946F936E7F6E5FA3
:1008C0007F4F8F4F9F4FAF4FB1E03ED0B4E03CD051
:1008D000670F781F891F9A1FA11D680F791F8A1F34
:1008E000911DA11D6A0F711D811D911DA11D20D09B
:1008F00009F468943F912AE0269F11243019305D55
:100900003193DEF6CF010895462F4770405D419345
:10091000B3E00FD0C9F7F6CF462F4F70405D4A3392
:1009200018F0495D31FD4052419302D0A9F7EACF5A
:10093000B4E0A6959795879577956795BA95C9F789
:1009400000976105710508959B01AC010A2E06947C
:100950005795479537952795BA95C9F7620F731F35
:10096000841F951FA01D08952F923F924F925F9272
:100970006F927F928F929F92AF92BF92CF92DF92AF
:10098000EF92FF920F931F93CF93DF93CDB7DEB714
:10099000CA1BDB0B0FB6F894DEBF0FBECDBF0994A8
:1009A0002A88398848885F846E847D848C849B84FF
:1009B000AA84B984C884DF80EE80FD800C811B810D
:1009C000AA81B981CE0FD11D0FB6F894DEBF0FBE3C
:0A09D000CDBFED010895F894FFCFAC
:1009DA000000000300000000E6001E010000546849
:1009EA0065207261772076616C75652069732025B0
:1009FA0033640A005468652070657263656E7461B9
:100A0A0067652076616C75652069732025752025D8
:040A1A0025200A0089
:00000001FF
