:100000000C9434000C9451000C9451000C94510049
:100010000C9451000C9451000C9451000C9451001C
:100020000C9451000C9451000C9451000C94AA00B3
:100030000C9451000C9451000C9451000C945100FC
:100040000C9451000C9451000C94B4010C94720166
:100050000C9451000C9451000C9451000C945100DC
:100060000C9451000C94510011241FBECFEFD8E026
:10007000DEBFCDBF11E0A0E0B1E0E4E0FEE002C0F1
:1000800005900D92AE32B107D9F721E0AEE2B1E0B2
:1000900001C01D92AB3CB207E1F70E94CF000C9467
:1000A00000070C94000080E480937C0087E8809334
:1000B0007A000895EAE7F0E080818064808380918F
:1000C0007A0086FDFCCF80917800909179000895A8
:1000D0009C01DC010E9413040E9418039B01AC01E7
:1000E00060E070E080E89FE30E94700220E630E765
:1000F00049E55AE40E94A60320E030E040E851E4DC
:100100000E9403020E94E202072E000C880B990B4A
:100110000E941A0324E63BE34FEA5FE30E94A60332
:100120000E94E202CB01089580E284B910922F016F
:1001300010922E0184E294EF9093890080938800BE
:10014000109280008CE08093810082E080936F00A9
:1001500086BB08951F920F920FB60F9211248F93B2
:100160009F9380912E0190912F01009719F0019794
:1001700051F00EC080E285B981E090E090932F01AC
:1001800080932E0105C015B810922F0110922E01F8
:100190009F918F910F900FBE0F901F9018950E9406
:1001A00094000E9456010E94530078940E945A00C5
:1001B0000E9468009F938F938EE091E09F938F93AE
:1001C0000E9422042FEF81E19AE721508040904065
:1001D000E1F700C000000F900F900F900F90E6CF56
:1001E000CF93C82F8A3019F48DE00E94F0009FB79A
:1001F000907802C0992329F1809131018823D4F3AA
:10020000F894E091300181E08E0F80933001F0E0AE
:10021000EE5CFE4FC083809131018F5F809331018E
:1002200080913001803811F410923001E1ECF0E05F
:10023000808180628083992339F0789480E090E017
:1002400005C081E090E002C080E090E0CF91089589
:100250008091C4018823E1F32FB72078F89480912E
:10026000B2013091C40190E0831B91095AF4E091EE
:10027000B2018091C401F0E0E81BF109ED53FE4F9B
:1002800080810AC0E091B2018091C401F0E0E81BD6
:10029000F109ED54FE4F80819091C40191509093EB
:1002A000C401222309F0789490E0089583E390E05C
:1002B0009093C5008093C4001092300110923101D8
:1002C0001092B2011092C4011092C30188E9809388
:1002D000C100E5ECF1E080E091E0938382839183BB
:1002E000808308951F920F920FB60F9211242F93BF
:1002F0008F939F93EF93FF9380913101882329F18E
:10030000809130012091310190E0821B91095AF4D3
:10031000E091300180913101F0E0E81BF109EE54E9
:10032000FE4F90810AC0E091300180913101F0E0F0
:10033000E81BF109EE5CFE4F908180913101815004
:10034000809331019093C60005C0E1ECF0E080811C
:100350008F7D8083FF91EF919F918F912F910F90CF
:100360000FBE0F901F9018951F920F920FB60F920D
:1003700011242F933F934F935F936F937F938F93AA
:100380009F93AF93BF93CF93EF93FF93C091C6001A
:100390008091310188232CF060E070E08C2F0E9466
:1003A000F0008091C401803120F081E08093C3018E
:1003B00018C0CD3009F4CAE0E091B20181E08E0F9F
:1003C0008093B201F0E0ED54FE4FC0838091C401F0
:1003D0008F5F8093C4018091B201803111F410923B
:1003E000B201FF91EF91CF91BF91AF919F918F910A
:1003F0007F916F915F914F913F912F910F900FBE21
:100400000F901F9018955058BB27AA270E941B02D7
:100410000C946C030E945E0338F00E94650320F088
:1004200039F49F3F19F426F40C945B030EF4E09525
:10043000E7FB0C945503E92F0E947D0358F3BA178C
:10044000620773078407950720F079F4A6F50C94EA
:100450009F030EF4E0950B2EBA2FA02D0B01B901CE
:1004600090010C01CA01A0011124FF27591B99F02A
:10047000593F50F4503E68F11A16F040A22F232F36
:10048000342F4427585FF3CF469537952795A79586
:10049000F0405395C9F77EF41F16BA0B620B730B2D
:1004A000840BBAF09150A1F0FF0FBB1F661F771F9E
:1004B000881FC2F70EC0BA0F621F731F841F48F453
:1004C000879577956795B795F7959E3F08F0B0CFDC
:1004D0009395880F08F09927EE0F979587950895C3
:1004E0000E9484020C946C030E94650358F00E94E1
:1004F0005E0340F029F45F3F29F00C94550351113D
:100500000C94A0030C945B030E947D0368F3992371
:10051000B1F3552391F3951B550BBB27AA276217FF
:100520007307840738F09F5F5F4F220F331F441F0C
:10053000AA1FA9F335D00E2E3AF0E0E832D0915040
:100540005040E695001CCAF72BD0FE2F29D0660F2D
:10055000771F881FBB1F261737074807AB07B0E870
:1005600009F0BB0B802DBF01FF2793585F4F3AF076
:100570009E3F510578F00C9455030C94A0035F3F07
:10058000E4F3983ED4F3869577956795B795F795FC
:100590009F5FC9F7880F911D9695879597F90895E4
:1005A000E1E0660F771F881FBB1F62177307840780
:1005B000BA0720F0621B730B840BBA0BEE1F88F78F
:1005C000E09508950E94E9026894B1110C94A0038B
:1005D00008950E94850388F09F5798F0B92F9927B6
:1005E000B751B0F0E1F0660F771F881F991F1AF01E
:1005F000BA95C9F714C0B13091F00E949F03B1E0E1
:1006000008950C949F03672F782F8827B85F39F0DF
:10061000B93FCCF3869577956795B395D9F73EF4B6
:1006200090958095709561957F4F8F4F9F4F08955E
:10063000E89409C097FB3EF490958095709561957C
:100640007F4F8F4F9F4F9923A9F0F92F96E9BB2732
:100650009395F695879577956795B795F111F8CFAE
:10066000FAF4BB0F11F460FF1BC06F5F7F4F8F4F19
:100670009F4F16C0882311F096E911C0772321F00F
:100680009EE8872F762F05C0662371F096E8862FA7
:1006900070E060E02AF09A95660F771F881FDAF7FE
:1006A000880F9695879597F9089597F99F6780E841
:1006B00070E060E008959FEF80EC089500240A94B4
:1006C0001616170618060906089500240A9412162D
:1006D0001306140605060895092E0394000C11F460
:1006E000882352F0BB0F40F4BF2B11F460FF04C00D
:1006F0006F5F7F4F8F4F9F4F089557FD9058440F66
:10070000551F59F05F3F71F04795880F97FB991F70
:1007100061F09F3F79F0879508951216130614062D
:10072000551FF2CF4695F1DF08C0161617061806BA
:10073000991FF1CF86957105610508940895E89495
:10074000BB2766277727CB0197F908950E94B90345
:100750000C946C030E945E0338F00E94650320F045
:10076000952311F00C9455030C945B0311240C9405
:10077000A0030E947D0370F3959FC1F3950F50E095
:10078000551F629FF001729FBB27F00DB11D639F43
:10079000AA27F00DB11DAA1F649F6627B00DA11DE9
:1007A000661F829F2227B00DA11D621F739FB00D8F
:1007B000A11D621F839FA00D611D221F749F3327FF
:1007C000A00D611D231F849F600D211D822F762F98
:1007D0006A2F11249F5750409AF0F1F088234AF075
:1007E000EE0FFF1FBB1F661F771F881F91505040E1
:1007F000A9F79E3F510580F00C9455030C94A0037B
:100800005F3FE4F3983ED4F3869577956795B79567
:10081000F795E7959F5FC1F7FE2B880F911D969581
:10082000879597F90895A29FB001B39FC001A39F38
:10083000700D811D1124911DB29F700D811D112419
:10084000911D0895A0E0B0E0E8E2F4E00C94D90630
:10085000AE014B5F5F4FFA0161917191AF018091E1
:10086000C7019091C8010E943804E2E00C94F5069B
:10087000ABE0B0E0EEE3F4E00C94C9066C017B0160
:100880008A01FC0117821682838181FFCCC1CE01CF
:1008900001963C01F6019381F70193FD859193FF49
:1008A00081917F01882309F4BAC1853239F493FD1F
:1008B000859193FF81917F01853229F4B60190E003
:1008C0000E942F06E7CF912C212C312CFFE1F3154C
:1008D000D8F08B3279F038F4803279F08332A1F499
:1008E000232D20611DC08D3261F0803369F4232DEA
:1008F000216016C0832D8260382EE32DE4603E2EE9
:100900002AC0F32DF8601DC037FC2DC020ED280F44
:100910002A3040F08E32B9F436FC81C1232D206498
:10092000322E19C036FE06C08AE0989E200D112492
:10093000922E11C0EAE02E9E200D1124222EF32DBE
:10094000F0623F2E08C08C3621F4832D8068382E4B
:1009500002C0883641F4F70193FD859193FF8191A0
:100960007F018111B3CF982F9F7D9554933028F448
:100970000C5F1F4F9FE399830DC0833631F083379F
:1009800071F0833509F059C021C0F8018081898355
:100990000E5F1F4F88248394912C530113C02801AC
:1009A000F2E04F0E511CF801A080B18036FE03C06A
:1009B000692D70E002C06FEF7FEFC5010E94240631
:1009C0004C018201F32DFF773F2E16C0280122E053
:1009D000420E511CF801A080B18036FE03C0692D83
:1009E00070E002C06FEF7FEFC5010E9419064C0155
:1009F000F32DF0683F2E820133FC1BC0822D90E066
:100A000088169906B0F4B60180E290E00E942F06A5
:100A10002A94F4CFF50137FC859137FE81915F016F
:100A2000B60190E00E942F0621102A9421E0821A3C
:100A300091088114910471F7E8C0843611F0893669
:100A400041F5F80137FE07C0608171818281938191
:100A50000C5F1F4F08C060817181072E000C880B4E
:100A6000990B0E5F1F4FF32DFF763F2E97FF09C0A6
:100A700090958095709561957F4F8F4F9F4FF0684F
:100A80003F2E2AE030E0A3010E946B06882E8618D4
:100A900045C0853731F4232D2F7EB22E2AE030E079
:100AA00025C0932D997FB92E8F36C1F018F4883563
:100AB00079F0B5C0803719F0883721F0B0C0E92F40
:100AC000E061BE2EB4FE0DC0FB2DF460BF2E09C048
:100AD00034FE0AC0292F2660B22E06C028E030E07E
:100AE00005C020E130E002C020E132E0F801B7FEAD
:100AF00007C060817181828193810C5F1F4F06C0A6
:100B00006081718180E090E00E5F1F4FA3010E9421
:100B10006B06882E8618FB2DFF773F2E36FE0DC004
:100B2000232D2E7FA22E891458F434FE0BC032FCE4
:100B300009C0832D8E7EA82E05C0B82CA32C03C01F
:100B4000B82C01C0B92CA4FE0FC0FE01E80DF11DA8
:100B50008081803321F49A2D997EA92E09C0A2FEAE
:100B600006C0B394B39404C08A2D867809F0B39478
:100B7000A3FC11C0A0FE06C0B21488F4280C922C6D
:100B80009B180EC0B21460F4B60180E290E00E949F
:100B90002F06B394F7CFB21418F42B1802C0982C78
:100BA000212CA4FE10C0B60180E390E00E942F0625
:100BB000A2FE17C0A1FC03C088E790E002C088E550
:100BC00090E0B6010CC08A2D867859F0A1FE02C0D3
:100BD0008BE201C080E2A7FC8DE2B60190E00E94AA
:100BE0002F06891438F4B60180E390E00E942F06A6
:100BF0009A94F7CF8A94F301E80DF11D8081B60134
:100C000090E00E942F068110F5CF222009F442CEF9
:100C1000B60180E290E00E942F062A94F6CFF601FA
:100C20008681978102C08FEF9FEF2B96E2E10C94B3
:100C3000E506FC010590615070400110D8F78095E1
:100C400090958E0F9F1F0895FC0161507040019098
:100C50000110D8F7809590958E0F9F1F08950F93E0
:100C60001F93CF93DF93FB01238121FD03C08FEFFF
:100C70009FEF2CC022FF16C0468157812481358109
:100C80004217530744F4A081B1819D012F5F3F4F6C
:100C9000318320838C93268137812F5F3F4F3783A9
:100CA000268314C08B01EC01FB010084F185E02D4B
:100CB0000995892BE1F6D80116968D919C9117978D
:100CC000019617969C938E931697CE01DF91CF9144
:100CD0001F910F910895FA01AA27283051F1203170
:100CE00081F1E8946F936E7F6E5F7F4F8F4F9F4FC0
:100CF000AF4FB1E03ED0B4E03CD0670F781F891F02
:100D00009A1FA11D680F791F8A1F911DA11D6A0FCF
:100D1000711D811D911DA11D20D009F468943F9182
:100D20002AE0269F11243019305D3193DEF6CF0181
:100D30000895462F4770405D4193B3E00FD0C9F747
:100D4000F6CF462F4F70405D4A3318F0495D31FDB4
:100D50004052419302D0A9F7EACFB4E0A695979507
:100D6000879577956795BA95C9F7009761057105DD
:100D700008959B01AC010A2E069457954795379527
:100D80002795BA95C9F7620F731F841F951FA01D81
:100D900008952F923F924F925F926F927F928F921F
:100DA0009F92AF92BF92CF92DF92EF92FF920F93FA
:100DB0001F93CF93DF93CDB7DEB7CA1BDB0B0FB604
:100DC000F894DEBF0FBECDBF09942A8839884888C1
:100DD0005F846E847D848C849B84AA84B984C88457
:100DE000DF80EE80FD800C811B81AA81B981CE0F4E
:100DF000D11D0FB6F894DEBF0FBECDBFED01089533
:040E0000F894FFCF94
:100E04000000000300000000F00028010000546806
:100E1400652070657263656E746167652076616CC8
:0E0E24007565206973202564202525200A00AD
:00000001FF
