:100000000C9434000C943E000C943E000C943E0082
:100010000C943E000C943E000C943E000C943E0068
:100020000C943E000C943E000C943E000C943E0058
:100030000C943E000C943E000C943E000C943E0048
:100040000C943E000C943E000C9462000C943E0014
:100050000C943E000C943E000C943E000C943E0028
:100060000C943E000C943E0011241FBECFEFD8E04C
:10007000DEBFCDBF0E9440000C9497000C9400009E
:1000800083E390E09093C5008093C40080E284B93C
:1000900088E98093C100789480E285B92FEF83EDE1
:1000A00090E3215080409040E1F700C0000015B877
:1000B0002FEF83ED90E3215080409040E1F700C0A6
:1000C0000000EACF1F920F920FB60F9211242F93C8
:1000D0003F934F935F936F937F938F939F93AF93D0
:1000E000BF93CF93DF93EF93FF93C6ECD0E088816B
:1000F00090E00E948F008883FF91EF91DF91CF9174
:10010000BF91AF919F918F917F916F915F914F912F
:100110003F912F910F900FBE0F901F901895911146
:10012000089581568A5108F4805285580895F894AC
:02013000FFCFFF
:00000001FF
