:100000000C9434000C9446000C9446000C9446006A
:100010000C9446000C9446000C9446000C94460048
:100020000C9446000C9446000C9446000C945E0020
:100030000C9446000C9446000C9446000C94460028
:100040000C9446000C9446000C9446000C94460018
:100050000C9446000C9446000C9446000C94460008
:100060000C9446000C94460011241FBECFEFD8E03C
:10007000DEBFCDBF21E0A0E0B1E001C01D92A23003
:10008000B207E1F70E9483000C9487000C940000F3
:1000900080E284B9109201011092000184E294EF91
:1000A0009093890080938800109280008CE0809368
:1000B000810082E080936F0086BB08951F920F92AB
:1000C0000FB60F9211248F939F938091000190910E
:1000D0000101009719F0019751F00EC080E285B937
:1000E00081E090E0909301018093000105C015B874
:1000F00010920101109200019F918F910F900FBEFD
:100100000F901F9018950E9448007894FFCFF894A4
:02011000FFCF1F
:00000001FF
